:10051300C10041000200410003004100010041000D
:060523000000410004008D
:10055400438E80E4F589758ACD758CD4D28CD2A96A
:03056400D2AF22F1
:03000B0002046983
:10046900C0E0C083C082C0D075D008900002E0D33C
:1004790094004018E014F0E07012900001E0FF9041
:100489000003E06F60069000007401F0D0D0D082C4
:05049900D083D0E03229
:09058C00D2BAD28AD2AAD2AF225F
:030013000205677C
:10056700C0E0C083C0829000047401F0D082D083C1
:03057700D0E0329F
:1004DE0053A23F759850538EFE438E405389F0754C
:0C04EE008BE0758DFED28ED2ACD2AF2216
:10057A00740112012D1200E7C394644004E41201CD
:02058A004F22FE
:030023000203CB0A
:0B03CB00C0E0C083C082C0D075D00825
:1003D600309835C298AF99900003E0240DF582E479
:1003E6003400F583EFF07B017A00790312057A90E9
:1003F6000001E0FF900003E0B50F077A00790112D3
:0F040600057A9000027414F0309904C299C20074
:09041500D0D0D082D083D0E032B7
:080003002000FDD2008F9922BC
:10041E00900072EBF0A3EAF0A3E9F0A3ECF0FEA3D8
:03042E00EDF0FFEF
:10043100E4FDFCD3EF9400EE9400402B900072E0B9
:10044100FBA3E0FAA3E0F90DEDAE0470010C14F585
:10045100828E83120100FF120003D3900076E09D8B
:07046100900075E09C50D5EE
:010468002271
:1002A700E4900072F0900003E0FDFE900001E0FC96
:1002B700EDC39C500474642EFEC3EE9CFDC39408EA
:1002C70040089000727408F08012900000E064010A
:1002D7007046900072EDF0E4900000F0E4FF9000AB
:1002E70072E0FDEFC39D5027900001E0240DF582D9
:1002F700E43400F583E0FE74732FF582E43400F5EF
:1003070083EEF07B017A00790112057A0F80CF7BAB
:08031700017A007973120183E1
:01031F0022BB
:100320001205541204DE12058C120026900001E022
:10033000FF900003E06F60051202A78009900000A3
:10034000E0B40102E4F0900004E064016005E5B06F
:0303500020E3D9CE
:10035300E4900004F07B017A0079051203779000A2
:1003630071EFF060DE7B017A007905E0FD7C00121D
:02037300041E66
:0203750080CF37
:1004BF00D3EF9400EE94004015E4FDFC0DBD000158
:0E04CF000CED64644C70F5EF1F70E51E80E2CA
:0104DD0022FC
:1004FA00E4FFC2A3FED2A3EF25E0FFA2A1E4334F9B
:08050A00FFC2A30EEEB408EDE0
:0105120022C6
:10049E00E4FEC2A3EFA806088002C333D8FC30E7FF
:1004AE0004D2A28002C2A2D2A30EEEB408E4C2A36A
:0104BE00221B
:10052A00AC07C2A07F0212049EAF0412049EAF055C
:06053A0012049ED2A02273
:02054000AD0705
:10054200C2A07F0312049EAF0512049E1204FAD2C7
:01055200A008
:010553002285
:0A001600C2A07FC012049ED2A022F7
:10002600E4FF1200167F017E001204BF7D037F2AC3
:1000360012052A7D907F2912052A7D027F28120546
:100046002A7DFF7F3112052A7DEB7F3212052A7D3C
:10005600FF7F3312052A7F3412052AE4FD7F6112E1
:10006600052A7F6212052A7F6312052A7F6412051C
:100076002A7D407F6012052A7D087F6512052A7D4C
:10008600FFE4FF12052A7DEB7F0112052A7DFF7F23
:100096000212052A7F0312052A7F2012052A7DE314
:1000A6007F2112052A7DFF7F2212052A7F23120552
:1000B6002AE4FD7F2C12052A0D7F2B12052A7D04CA
:1000C6007F0F12052A7F0E120540EF7E0060047F27
:1000D6000180027F00EF4E60077D047F0F12052A24
:0100E60022F7
:0E01830090007BEBF0A3EAF0A3E9F0A3EDF00F
:10019100E4900080F090007EE0FF900080E0C39F3B
:1001A1005077E4FB7F30120540EF30E310EBC3944E
:1001B10032500A7F017E001204BF0B80E7E49000F9
:1001C1007FF090007FE0FFC394085035EF2436FFA5
:1001D10090007BE0FBA3E0FAA3E0F9900080E0FE51
:1001E10004F08E82758300120100FD12052A900031
:1001F1007FE004F090007EE0FF900080E0C39F402C
:10020100C190007FE0FD7F3512052AC2A07D087FE5
:090211003012052AD2A002019668
:01021A0022C1
:0B037700900072EBF0A3EAF0A3E9F0A5
:10038200E4FCA3F07F2C120540EF30E02F7F6512D2
:100392000540EFF0900075E0FFECC39F501EEC2487
:1003A20066FF120540900072E0FBA3E0FAA3E0F9B9
:1003B2008C82758300EF1201610C80D8E4FD7F2CE2
:0803C20012052A900075E0FF0E
:0103CA002210
:0300000002021BDE
:0C021B00787FE4F6D8FD758120020262B5
:1000E700BB010689828A83E0225002E722BBFE0217
:0900F700E32289828A83E493224A
:10010000BB010CE58229F582E5833AF583E02250B4
:1001100006E92582F8E622BBFE06E92582F8E222FE
:0D012000E58229F582E5833AF583E4932218
:10012D00BB010989828A83F8E028F022500327F762
:10013D0022BBFE05F8E328F3228A838982F8E49333
:02014D00282266
:10014F00BB010689828A83F0225002F722BBFE018F
:02015F00F32289
:10016100F8BB010DE58229F582E5833AF583E8F0D4
:10017100225006E92582C8F622BBFE05E92582C880
:02018100F22268
:10022700020320E493A3F8E493A34003F68001F2CA
:1002370008DFF48029E493A3F85407240CC8C333D8
:10024700C4540F4420C8834004F456800146F6DFA7
:10025700E4800B0102040810204080900513E47E1F
:10026700019360BCA3FF543F30E509541FFEE4939C
:10027700A360010ECF54C025E060A840B8E493A363
:10028700FAE493A3F8E493A3C8C582C8CAC583CA8E
:10029700F0A3C8C582C8CAC583CADFE9DEE780BE46
:0105290000D1
:00000001FF
